{
  "contractName": "UnilendFlashLoanCore",
  "abi": [
    {
      "inputs": [],
      "stateMutability": "nonpayable",
      "type": "constructor"
    },
    {
      "anonymous": false,
      "inputs": [
        {
          "indexed": true,
          "internalType": "address",
          "name": "_reserve",
          "type": "address"
        },
        {
          "indexed": true,
          "internalType": "address",
          "name": "_user",
          "type": "address"
        },
        {
          "indexed": false,
          "internalType": "uint256",
          "name": "_amount",
          "type": "uint256"
        },
        {
          "indexed": false,
          "internalType": "uint256",
          "name": "_timestamp",
          "type": "uint256"
        }
      ],
      "name": "Deposit",
      "type": "event"
    },
    {
      "anonymous": false,
      "inputs": [
        {
          "indexed": true,
          "internalType": "address",
          "name": "_target",
          "type": "address"
        },
        {
          "indexed": true,
          "internalType": "address",
          "name": "_reserve",
          "type": "address"
        },
        {
          "indexed": false,
          "internalType": "uint256",
          "name": "_amount",
          "type": "uint256"
        },
        {
          "indexed": false,
          "internalType": "uint256",
          "name": "_totalFee",
          "type": "uint256"
        },
        {
          "indexed": false,
          "internalType": "uint256",
          "name": "_protocolFee",
          "type": "uint256"
        },
        {
          "indexed": false,
          "internalType": "uint256",
          "name": "_timestamp",
          "type": "uint256"
        }
      ],
      "name": "FlashLoan",
      "type": "event"
    },
    {
      "anonymous": false,
      "inputs": [
        {
          "indexed": true,
          "internalType": "address",
          "name": "token",
          "type": "address"
        },
        {
          "indexed": false,
          "internalType": "address",
          "name": "pool",
          "type": "address"
        },
        {
          "indexed": false,
          "internalType": "uint256",
          "name": "",
          "type": "uint256"
        }
      ],
      "name": "PoolCreated",
      "type": "event"
    },
    {
      "anonymous": false,
      "inputs": [
        {
          "indexed": true,
          "internalType": "address",
          "name": "_reserve",
          "type": "address"
        },
        {
          "indexed": true,
          "internalType": "address",
          "name": "_user",
          "type": "address"
        },
        {
          "indexed": false,
          "internalType": "uint256",
          "name": "_amount",
          "type": "uint256"
        },
        {
          "indexed": false,
          "internalType": "uint256",
          "name": "_timestamp",
          "type": "uint256"
        }
      ],
      "name": "RedeemUnderlying",
      "type": "event"
    },
    {
      "inputs": [
        {
          "internalType": "address",
          "name": "",
          "type": "address"
        }
      ],
      "name": "Assets",
      "outputs": [
        {
          "internalType": "address",
          "name": "",
          "type": "address"
        }
      ],
      "stateMutability": "view",
      "type": "function",
      "constant": true
    },
    {
      "inputs": [
        {
          "internalType": "address",
          "name": "",
          "type": "address"
        }
      ],
      "name": "Pools",
      "outputs": [
        {
          "internalType": "address",
          "name": "",
          "type": "address"
        }
      ],
      "stateMutability": "view",
      "type": "function",
      "constant": true
    },
    {
      "inputs": [],
      "name": "admin",
      "outputs": [
        {
          "internalType": "address",
          "name": "",
          "type": "address"
        }
      ],
      "stateMutability": "view",
      "type": "function",
      "constant": true
    },
    {
      "inputs": [],
      "name": "distributorAddress",
      "outputs": [
        {
          "internalType": "address payable",
          "name": "",
          "type": "address"
        }
      ],
      "stateMutability": "view",
      "type": "function",
      "constant": true
    },
    {
      "inputs": [],
      "name": "donationAddress",
      "outputs": [
        {
          "internalType": "address",
          "name": "",
          "type": "address"
        }
      ],
      "stateMutability": "view",
      "type": "function",
      "constant": true
    },
    {
      "inputs": [],
      "name": "poolLength",
      "outputs": [
        {
          "internalType": "uint256",
          "name": "",
          "type": "uint256"
        }
      ],
      "stateMutability": "view",
      "type": "function",
      "constant": true
    },
    {
      "stateMutability": "payable",
      "type": "receive",
      "payable": true
    },
    {
      "inputs": [],
      "name": "getFlashLoanFeesInBips",
      "outputs": [
        {
          "internalType": "uint256",
          "name": "",
          "type": "uint256"
        },
        {
          "internalType": "uint256",
          "name": "",
          "type": "uint256"
        }
      ],
      "stateMutability": "view",
      "type": "function",
      "constant": true
    },
    {
      "inputs": [
        {
          "internalType": "address[]",
          "name": "_reserves",
          "type": "address[]"
        }
      ],
      "name": "getPools",
      "outputs": [
        {
          "internalType": "address[]",
          "name": "",
          "type": "address[]"
        }
      ],
      "stateMutability": "view",
      "type": "function",
      "constant": true
    },
    {
      "inputs": [
        {
          "internalType": "address",
          "name": "_admin",
          "type": "address"
        }
      ],
      "name": "setAdmin",
      "outputs": [],
      "stateMutability": "nonpayable",
      "type": "function"
    },
    {
      "inputs": [
        {
          "internalType": "address payable",
          "name": "_address",
          "type": "address"
        }
      ],
      "name": "setDistributorAddress",
      "outputs": [],
      "stateMutability": "nonpayable",
      "type": "function"
    },
    {
      "inputs": [
        {
          "internalType": "uint256",
          "name": "_newFeeTotal",
          "type": "uint256"
        },
        {
          "internalType": "uint256",
          "name": "_newFeeProtocol",
          "type": "uint256"
        }
      ],
      "name": "setFlashLoanFeesInBips",
      "outputs": [
        {
          "internalType": "bool",
          "name": "",
          "type": "bool"
        }
      ],
      "stateMutability": "nonpayable",
      "type": "function"
    },
    {
      "inputs": [
        {
          "internalType": "address",
          "name": "_receiver",
          "type": "address"
        },
        {
          "internalType": "address",
          "name": "_reserve",
          "type": "address"
        },
        {
          "internalType": "uint256",
          "name": "_amount",
          "type": "uint256"
        },
        {
          "internalType": "bytes",
          "name": "_params",
          "type": "bytes"
        }
      ],
      "name": "flashLoan",
      "outputs": [],
      "stateMutability": "nonpayable",
      "type": "function"
    },
    {
      "inputs": [
        {
          "internalType": "address",
          "name": "_reserve",
          "type": "address"
        },
        {
          "internalType": "uint256",
          "name": "_amount",
          "type": "uint256"
        }
      ],
      "name": "deposit",
      "outputs": [
        {
          "internalType": "uint256",
          "name": "mintedTokens",
          "type": "uint256"
        }
      ],
      "stateMutability": "payable",
      "type": "function",
      "payable": true
    },
    {
      "inputs": [
        {
          "internalType": "address",
          "name": "_reserve",
          "type": "address"
        },
        {
          "internalType": "uint256",
          "name": "_amount",
          "type": "uint256"
        }
      ],
      "name": "redeem",
      "outputs": [
        {
          "internalType": "uint256",
          "name": "redeemTokens",
          "type": "uint256"
        }
      ],
      "stateMutability": "nonpayable",
      "type": "function"
    },
    {
      "inputs": [
        {
          "internalType": "address",
          "name": "_reserve",
          "type": "address"
        },
        {
          "internalType": "uint256",
          "name": "_amount",
          "type": "uint256"
        }
      ],
      "name": "redeemUnderlying",
      "outputs": [
        {
          "internalType": "uint256",
          "name": "token_amount",
          "type": "uint256"
        }
      ],
      "stateMutability": "nonpayable",
      "type": "function"
    },
    {
      "inputs": [
        {
          "internalType": "address",
          "name": "_reserve",
          "type": "address"
        }
      ],
      "name": "createPool",
      "outputs": [
        {
          "internalType": "address",
          "name": "",
          "type": "address"
        }
      ],
      "stateMutability": "nonpayable",
      "type": "function"
    },
    {
      "inputs": [],
      "name": "createDonationContract",
      "outputs": [
        {
          "internalType": "address",
          "name": "",
          "type": "address"
        }
      ],
      "stateMutability": "nonpayable",
      "type": "function"
    }
  ],
  "bytecode": "0x60806040526009600755610bb860085534801561001b57600080fd5b506001600081905580546001600160a01b03191633179055614e28806100426000396000f3fe6080604052600436106200011b5760003560e01c806387950f4911620000a3578063a74735f5116200006d578063a74735f514620004b4578063ad1b188b14620004cc578063ec034bed1462000514578063f851a440146200052c578063fb53079414620005445762000123565b806387950f4914620003f15780639049f9d2146200042857806396294178146200045f578063a51af4c5146200049c5762000123565b8063586feb4011620000e5578063586feb4014620002115780635cffe9de14620002425780635e63547a14620002e6578063704b6c0214620003ba5762000123565b8063081e3eda14620001285780631e9a6950146200015257806347e7ef24146200018f5780634edd828514620001be5762000123565b366200012357005b600080fd5b3480156200013557600080fd5b50620001406200057b565b60408051918252519081900360200190f35b3480156200015f57600080fd5b5062000140600480360360408110156200017857600080fd5b506001600160a01b03813516906020013562000581565b6200014060048036036040811015620001a757600080fd5b506001600160a01b0381351690602001356200073e565b348015620001cb57600080fd5b50620001f560048036036020811015620001e457600080fd5b50356001600160a01b031662000b3a565b604080516001600160a01b039092168252519081900360200190f35b3480156200021e57600080fd5b506200022962000b55565b6040805192835260208301919091528051918290030190f35b3480156200024f57600080fd5b50620002e4600480360360808110156200026857600080fd5b6001600160a01b03823581169260208101359091169160408201359190810190608081016060820135600160201b811115620002a357600080fd5b820183602082011115620002b657600080fd5b803590602001918460018302840111600160201b83111715620002d857600080fd5b50909250905062000b5f565b005b348015620002f357600080fd5b5062000368600480360360208110156200030c57600080fd5b810190602081018135600160201b8111156200032757600080fd5b8201836020820111156200033a57600080fd5b803590602001918460208302840111600160201b831117156200035c57600080fd5b50909250905062000fd9565b60408051602080825283518183015283519192839290830191858101910280838360005b83811015620003a65781810151838201526020016200038c565b505050509050019250505060405180910390f35b348015620003c757600080fd5b50620002e460048036036020811015620003e057600080fd5b50356001600160a01b0316620010d6565b348015620003fe57600080fd5b50620002e4600480360360208110156200041757600080fd5b50356001600160a01b0316620011ab565b3480156200043557600080fd5b50620001f5600480360360208110156200044e57600080fd5b50356001600160a01b031662001280565b3480156200046c57600080fd5b5062000140600480360360408110156200048557600080fd5b506001600160a01b0381351690602001356200186d565b348015620004a957600080fd5b50620001f562001a2a565b348015620004c157600080fd5b50620001f562001a39565b348015620004d957600080fd5b506200050060048036036040811015620004f257600080fd5b508035906020013562001ad9565b604080519115158252519081900360200190f35b3480156200052157600080fd5b50620001f562001be6565b3480156200053957600080fd5b50620001f562001bf5565b3480156200055157600080fd5b50620001f5600480360360208110156200056a57600080fd5b50356001600160a01b031662001c04565b60065481565b6001600160a01b03828116600090815260046020526040812054909116620005ec576040805162461bcd60e51b8152602060048201526019602482015278155b9a5b195b99158c4e881413d3d3081393d5081193d55391603a1b604482015290519081900360640190fd5b600354604080516310f617c960e31b81526001600160a01b038681166004830152915191909216916387b0be4891602480830192600092919082900301818387803b1580156200063b57600080fd5b505af115801562000650573d6000803e3d6000fd5b505050506001600160a01b0383811660009081526004602081815260408084205481516301e9a69560e41b81523394810194909452602484018890529051941693631e9a6950936044808501948390030190829087803b158015620006b457600080fd5b505af1158015620006c9573d6000803e3d6000fd5b505050506040513d6020811015620006e057600080fd5b50519050620006f183338362001c1f565b60408051828152426020820152815133926001600160a01b038716927f9c4ed599cd8555b9c1e8cd7643240d7d71eb76b792948c49fcb4d411f7b6b3c6929081900390910190a392915050565b60006002600054141562000799576040805162461bcd60e51b815260206004820152601f60248201527f5265656e7472616e637947756172643a207265656e7472616e742063616c6c00604482015290519081900360640190fd5b60026000558180620007f2576040805162461bcd60e51b815260206004820152601d60248201527f416d6f756e74206d7573742062652067726561746572207468616e2030000000604482015290519081900360640190fd5b6001600160a01b03848116600090815260046020526040902054166200085b576040805162461bcd60e51b8152602060048201526019602482015278155b9a5b195b99158c4e881413d3d3081393d5081193d55391603a1b604482015290519081900360640190fd5b600354604080516310f617c960e31b81526001600160a01b038781166004830152915191909216916387b0be4891602480830192600092919082900301818387803b158015620008aa57600080fd5b505af1158015620008bf573d6000803e3d6000fd5b505050506000339050620008d262001d6e565b6001600160a01b0316856001600160a01b0316146200094d5734156200092a5760405162461bcd60e51b815260040180806020018281038252603281526020018062004c9f6032913960400191505060405180910390fd5b620009476001600160a01b03861682308763ffffffff62001d8616565b62000a58565b833410156200098e5760405162461bcd60e51b815260040180806020018281038252603581526020018062004c6a6035913960400191505060405180910390fd5b8334111562000a58576000620009ab348663ffffffff62001de216565b6040519091506000906001600160a01b0384169061c35090849084818181858888f193505050503d806000811462000a00576040519150601f19603f3d011682016040523d82523d6000602084013e62000a05565b606091505b505090508062000a55576040805162461bcd60e51b8152602060048201526016602482015275151c985b9cd9995c881bd9881155120819985a5b195960521b604482015290519081900360640190fd5b50505b6001600160a01b0380861660009081526004602081815260408084205481516311f9fbc960e21b81523394810194909452602484018a905290519416936347e7ef24936044808501948390030190829087803b15801562000ab857600080fd5b505af115801562000acd573d6000803e3d6000fd5b505050506040513d602081101562000ae457600080fd5b505160408051868152426020820152815192955033926001600160a01b038916927fdcbc1c05240f31ff3ad067ef1ee35ce4997762752e3a095284754544f4c709d7928290030190a35050600160005592915050565b6004602052600090815260409020546001600160a01b031681565b6007546008549091565b6002600054141562000bb8576040805162461bcd60e51b815260206004820152601f60248201527f5265656e7472616e637947756172643a207265656e7472616e742063616c6c00604482015290519081900360640190fd5b6002600055828062000c11576040805162461bcd60e51b815260206004820152601d60248201527f416d6f756e74206d7573742062652067726561746572207468616e2030000000604482015290519081900360640190fd5b600062000c1d62001d6e565b6001600160a01b0316866001600160a01b03161462000cb157604080516370a0823160e01b815230600482015290516001600160a01b038816916370a08231916024808301926020929190829003018186803b15801562000c7d57600080fd5b505afa15801562000c92573d6000803e3d6000fd5b505050506040513d602081101562000ca957600080fd5b505162000cb3565b475b90508481101562000cf65760405162461bcd60e51b815260040180806020018281038252603181526020018062004c146031913960400191505060405180910390fd5b60008062000d0362000b55565b9092509050600062000d3061271062000d238a8663ffffffff62001e4016565b9063ffffffff62001ea516565b9050600062000d4d61271062000d23848663ffffffff62001e4016565b905060008211801562000d605750600081115b62000d9d5760405162461bcd60e51b815260040180806020018281038252603281526020018062004d756032913960400191505060405180910390fd5b8a62000dab8b828c62001c1f565b806001600160a01b031663ee8725588c8c868d8d6040518663ffffffff1660e01b815260040180866001600160a01b03166001600160a01b03168152602001858152602001848152602001806020018281038252848482818152602001925080828437600081840152601f19601f8201169050808301925050509650505050505050600060405180830381600087803b15801562000e4857600080fd5b505af115801562000e5d573d6000803e3d6000fd5b50505050600062000e6d62001d6e565b6001600160a01b03168c6001600160a01b03161462000f0157604080516370a0823160e01b815230600482015290516001600160a01b038e16916370a08231916024808301926020929190829003018186803b15801562000ecd57600080fd5b505afa15801562000ee2573d6000803e3d6000fd5b505050506040513d602081101562000ef957600080fd5b505162000f03565b475b905062000f17878563ffffffff62001f0e16565b811462000f565760405162461bcd60e51b815260040180806020018281038252603281526020018062004cf76032913960400191505060405180910390fd5b62000f628c8462001f69565b8b6001600160a01b03168d6001600160a01b03167f5b8f46461c1dd69fb968f1a003acee221ea3e19540e350233b612ddb43433b558d8787426040518085815260200184815260200183815260200182815260200194505050505060405180910390a3505060016000555050505050505050505050565b606080838390506040519080825280602002602001820160405280156200100a578160200160208202803883390190505b509050606084848080602002602001604051908101604052809392919081815260200183836020028082843760009201829052509394505050505b8151811015620010ca57600460008383815181106200106057fe5b60200260200101516001600160a01b03166001600160a01b0316815260200190815260200160002060009054906101000a90046001600160a01b0316838281518110620010a957fe5b6001600160a01b039092166020928302919091019091015260010162001045565b50909150505b92915050565b6001546001600160a01b0316331462001133576040805162461bcd60e51b815260206004820152601a6024820152792a34329031b0b63632b91036bab9ba10313290309030b236b4b760311b604482015290519081900360640190fd5b6001600160a01b03811662001189576040805162461bcd60e51b8152602060048201526017602482015276556e696c656e6456313a205a45524f204144445245535360481b604482015290519081900360640190fd5b600180546001600160a01b0319166001600160a01b0392909216919091179055565b6001546001600160a01b0316331462001208576040805162461bcd60e51b815260206004820152601a6024820152792a34329031b0b63632b91036bab9ba10313290309030b236b4b760311b604482015290519081900360640190fd5b6001600160a01b0381166200125e576040805162461bcd60e51b8152602060048201526017602482015276556e696c656e6456313a205a45524f204144445245535360481b604482015290519081900360640190fd5b600280546001600160a01b0319166001600160a01b0392909216919091179055565b6001600160a01b0381811660009081526004602052604081205490911615620012f0576040805162461bcd60e51b815260206004820152601f60248201527f556e696c656e6456313a20504f4f4c20414c5245414459204352454154454400604482015290519081900360640190fd5b81606080620012fe62001d6e565b6001600160a01b0316856001600160a01b031614156200136b575050604080516e0aadcd2d8cadcc8ac62405a408aa89608b1b60208201528151808203600f018152602f82018352630ea8aa8960e31b604f830152825160338184030181526053909201909252620016bd565b826001600160a01b03166306fdde036040518163ffffffff1660e01b815260040160006040518083038186803b158015620013a557600080fd5b505afa158015620013ba573d6000803e3d6000fd5b505050506040513d6000823e601f3d908101601f191682016040526020811015620013e457600080fd5b8101908080516040519392919084600160201b8211156200140457600080fd5b9083019060208201858111156200141a57600080fd5b8251600160201b8111828201881017156200143457600080fd5b82525081516020918201929091019080838360005b838110156200146357818101518382015260200162001449565b50505050905090810190601f168015620014915780820380516001836020036101000a031916815260200191505b5060405250505060405160200180806b02ab734b632b7322b189016960a51b815250600c0182805190602001908083835b60208310620014e35780518252601f199092019160209182019101620014c2565b6001836020036101000a0380198251168184511680821785525050505050509050019150506040516020818303038152906040529150826001600160a01b03166395d89b416040518163ffffffff1660e01b815260040160006040518083038186803b1580156200155357600080fd5b505afa15801562001568573d6000803e3d6000fd5b505050506040513d6000823e601f3d908101601f1916820160405260208110156200159257600080fd5b8101908080516040519392919084600160201b821115620015b257600080fd5b908301906020820185811115620015c857600080fd5b8251600160201b811182820188101715620015e257600080fd5b82525081516020918201929091019080838360005b8381101562001611578181015183820152602001620015f7565b50505050905090810190601f1680156200163f5780820380516001836020036101000a031916815260200191505b506040525050506040516020018080607560f81b81525060010182805190602001908083835b60208310620016865780518252601f19909201916020918201910162001665565b6001836020036101000a03801982511681845116808217855250505050505090500191505060405160208183030381529060405290505b6000858383604051620016d09062002397565b6001600160a01b0384168152606060208083018281528551928401929092528451604084019160808501919087019080838360005b838110156200171f57818101518382015260200162001705565b50505050905090810190601f1680156200174d5780820380516001836020036101000a031916815260200191505b50838103825284518152845160209182019186019080838360005b838110156200178257818101518382015260200162001768565b50505050905090810190601f168015620017b05780820380516001836020036101000a031916815260200191505b5095505050505050604051809103906000f080158015620017d5573d6000803e3d6000fd5b506001600160a01b03808816600081815260046020908152604080832080549587166001600160a01b0319968716811790915580845260058352928190208054909516841790945560068054600101908190558451928352908201528251939450849391927ff8a0462f666b427ea753848be7e91f9ce413975906f6f39950be296ca9a4d52492918290030190a29695505050505050565b6001600160a01b03828116600090815260046020526040812054909116620018d8576040805162461bcd60e51b8152602060048201526019602482015278155b9a5b195b99158c4e881413d3d3081393d5081193d55391603a1b604482015290519081900360640190fd5b600354604080516310f617c960e31b81526001600160a01b038681166004830152915191909216916387b0be4891602480830192600092919082900301818387803b1580156200192757600080fd5b505af11580156200193c573d6000803e3d6000fd5b505050506001600160a01b0383811660009081526004602081815260408084205481516312c5282f60e31b815233948101949094526024840188905290519416936396294178936044808501948390030190829087803b158015620019a057600080fd5b505af1158015620019b5573d6000803e3d6000fd5b505050506040513d6020811015620019cc57600080fd5b50519050620019dd83338462001c1f565b60408051838152426020820152815133926001600160a01b038716927f9c4ed599cd8555b9c1e8cd7643240d7d71eb76b792948c49fcb4d411f7b6b3c6929081900390910190a392915050565b6002546001600160a01b031681565b6003546000906001600160a01b03161562001a865760405162461bcd60e51b815260040180806020018281038252602b81526020018062004d29602b913960400191505060405180910390fd5b600060405162001a9690620023a5565b604051809103906000f08015801562001ab3573d6000803e3d6000fd5b50600380546001600160a01b0319166001600160a01b0392831617908190551692915050565b6001546000906001600160a01b0316331462001b39576040805162461bcd60e51b815260206004820152601a6024820152792a34329031b0b63632b91036bab9ba10313290309030b236b4b760311b604482015290519081900360640190fd5b60008311801562001b4b575061271083105b62001b885760405162461bcd60e51b815260040180806020018281038252602281526020018062004da76022913960400191505060405180910390fd5b60008211801562001b9a575061271082105b62001bd75760405162461bcd60e51b815260040180806020018281038252602581526020018062004c456025913960400191505060405180910390fd5b50600791909155600855600190565b6003546001600160a01b031681565b6001546001600160a01b031681565b6005602052600090815260409020546001600160a01b031681565b6001600160a01b03821662001c7b576040805162461bcd60e51b815260206004820152601c60248201527f556e696c656e6456313a2055534552205a45524f204144445245535300000000604482015290519081900360640190fd5b62001c8562001d6e565b6001600160a01b0316836001600160a01b03161462001cc05762001cba6001600160a01b038416838363ffffffff6200206116565b62001d69565b6040516000906001600160a01b0384169061c35090849084818181858888f193505050503d806000811462001d12576040519150601f19603f3d011682016040523d82523d6000602084013e62001d17565b606091505b505090508062001d67576040805162461bcd60e51b8152602060048201526016602482015275151c985b9cd9995c881bd9881155120819985a5b195960521b604482015290519081900360640190fd5b505b505050565b73eeeeeeeeeeeeeeeeeeeeeeeeeeeeeeeeeeeeeeee90565b604080516001600160a01b0380861660248301528416604482015260648082018490528251808303909101815260849091019091526020810180516001600160e01b03166323b872dd60e01b17905262001d67908590620020b0565b60008282111562001e3a576040805162461bcd60e51b815260206004820152601e60248201527f536166654d6174683a207375627472616374696f6e206f766572666c6f770000604482015290519081900360640190fd5b50900390565b60008262001e5157506000620010d0565b8282028284828162001e5f57fe5b041462001e9e5760405162461bcd60e51b815260040180806020018281038252602181526020018062004d546021913960400191505060405180910390fd5b9392505050565b600080821162001efc576040805162461bcd60e51b815260206004820152601a60248201527f536166654d6174683a206469766973696f6e206279207a65726f000000000000604482015290519081900360640190fd5b81838162001f0657fe5b049392505050565b60008282018381101562001e9e576040805162461bcd60e51b815260206004820152601b60248201527f536166654d6174683a206164646974696f6e206f766572666c6f770000000000604482015290519081900360640190fd5b62001f7362001d6e565b6001600160a01b0316826001600160a01b03161462001fb45760025462001fae906001600160a01b0384811691168363ffffffff6200206116565b6200205d565b6002546040516000916001600160a01b03169061c35090849084818181858888f193505050503d806000811462002008576040519150601f19603f3d011682016040523d82523d6000602084013e6200200d565b606091505b505090508062001d69576040805162461bcd60e51b8152602060048201526016602482015275151c985b9cd9995c881bd9881155120819985a5b195960521b604482015290519081900360640190fd5b5050565b604080516001600160a01b038416602482015260448082018490528251808303909101815260649091019091526020810180516001600160e01b031663a9059cbb60e01b17905262001d699084905b606062002107826040518060400160405280602081526020017f5361666545524332303a206c6f772d6c6576656c2063616c6c206661696c6564815250856001600160a01b0316620021679092919063ffffffff16565b80519091501562001d69578080602001905160208110156200212857600080fd5b505162001d695760405162461bcd60e51b815260040180806020018281038252602a81526020018062004dc9602a913960400191505060405180910390fd5b606062002178848460008562002180565b949350505050565b606082471015620021c35760405162461bcd60e51b815260040180806020018281038252602681526020018062004cd16026913960400191505060405180910390fd5b620021ce85620022e7565b62002220576040805162461bcd60e51b815260206004820152601d60248201527f416464726573733a2063616c6c20746f206e6f6e2d636f6e7472616374000000604482015290519081900360640190fd5b60006060866001600160a01b031685876040518082805190602001908083835b60208310620022615780518252601f19909201916020918201910162002240565b6001836020036101000a03801982511681845116808217855250505050505090500191505060006040518083038185875af1925050503d8060008114620022c5576040519150601f19603f3d011682016040523d82523d6000602084013e620022ca565b606091505b5091509150620022dc828286620022ed565b979650505050505050565b3b151590565b60608315620022fe57508162001e9e565b8251156200230f5782518084602001fd5b8160405162461bcd60e51b81526004018080602001828103825283818151815260200191508051906020019080838360005b838110156200235b57818101518382015260200162002341565b50505050905090810190601f168015620023895780820380516001836020036101000a031916815260200191505b509250505060405180910390fd5b611b3880620023b483390190565b610d288062003eec8339019056fe60806040523480156200001157600080fd5b5060405162001b3838038062001b38833981810160405260608110156200003757600080fd5b8151602083018051604051929492938301929190846401000000008211156200005f57600080fd5b9083019060208201858111156200007557600080fd5b82516401000000008111828201881017156200009057600080fd5b82525081516020918201929091019080838360005b83811015620000bf578181015183820152602001620000a5565b50505050905090810190601f168015620000ed5780820380516001836020036101000a031916815260200191505b50604052602001805160405193929190846401000000008211156200011157600080fd5b9083019060208201858111156200012757600080fd5b82516401000000008111828201881017156200014257600080fd5b82525081516020918201929091019080838360005b838110156200017157818101518382015260200162000157565b50505050905090810190601f1680156200019f5780820380516001836020036101000a031916815260200191505b50604052505082518391508290620001bf90600390602085019062000223565b508051620001d590600490602084019062000223565b5050600580546001600160a01b0390951661010002610100600160a81b031960ff1990961660121795909516949094179093555050600680546001600160a01b0319163317905550620002c8565b828054600181600116156101000203166002900490600052602060002090601f016020900481019282601f106200026657805160ff191683800117855562000296565b8280016001018555821562000296579182015b828111156200029657825182559160200191906001019062000279565b50620002a4929150620002a8565b5090565b620002c591905b80821115620002a45760008155600101620002af565b90565b61186080620002d86000396000f3fe608060405234801561001057600080fd5b506004361061010b5760003560e01c806347e7ef24116100a2578063a457c2d711610071578063a457c2d71461033f578063a9059cbb1461036b578063dd62ed3e14610397578063f2f4eb26146103c5578063fc0c546a146103e95761010b565b806347e7ef24146102b957806370a08231146102e557806395d89b411461030b57806396294178146103135761010b565b806323b872dd116100de57806323b872dd14610213578063313ce5671461024957806339509351146102675780633af9e669146102935761010b565b806306fdde0314610110578063095ea7b31461018d57806318160ddd146101cd5780631e9a6950146101e7575b600080fd5b6101186103f1565b6040805160208082528351818301528351919283929083019185019080838360005b8381101561015257818101518382015260200161013a565b50505050905090810190601f16801561017f5780820380516001836020036101000a031916815260200191505b509250505060405180910390f35b6101b9600480360360408110156101a357600080fd5b506001600160a01b038135169060200135610487565b604080519115158252519081900360200190f35b6101d56104a5565b60408051918252519081900360200190f35b6101d5600480360360408110156101fd57600080fd5b506001600160a01b0381351690602001356104ab565b6101b96004803603606081101561022957600080fd5b506001600160a01b038135811691602081013590911690604001356106e1565b61025161076f565b6040805160ff9092168252519081900360200190f35b6101b96004803603604081101561027d57600080fd5b506001600160a01b038135169060200135610778565b6101d5600480360360208110156102a957600080fd5b50356001600160a01b03166107cc565b6101d5600480360360408110156102cf57600080fd5b506001600160a01b038135169060200135610a56565b6101d5600480360360208110156102fb57600080fd5b50356001600160a01b0316610bfe565b610118610c1d565b6101d56004803603604081101561032957600080fd5b506001600160a01b038135169060200135610c7e565b6101b96004803603604081101561035557600080fd5b506001600160a01b038135169060200135610eac565b6101b96004803603604081101561038157600080fd5b506001600160a01b038135169060200135610f1a565b6101d5600480360360408110156103ad57600080fd5b506001600160a01b0381358116916020013516610f2e565b6103cd610f59565b604080516001600160a01b039092168252519081900360200190f35b6103cd610f68565b60038054604080516020601f600260001961010060018816150201909516949094049384018190048102820181019092528281526060939092909183018282801561047d5780601f106104525761010080835404028352916020019161047d565b820191906000526020600020905b81548152906001019060200180831161046057829003601f168201915b5050505050905090565b600061049b610494610f7c565b8484610f80565b5060015b92915050565b60025490565b6006546000906001600160a01b031633146104fd576040805162461bcd60e51b815260206004820152600d60248201526c139bdd0814195c9b5a5d1d1959609a1b604482015290519081900360640190fd5b60008211610552576040805162461bcd60e51b815260206004820152601d60248201527f496e73756666696369656e74204c6971756964697479204275726e6564000000604482015290519081900360640190fd5b8161055c84610bfe565b10156105aa576040805162461bcd60e51b815260206004820152601860248201527710985b185b98d948115e1959591cc814995c5d595cdd195960421b604482015290519081900360640190fd5b60055460009061010090046001600160a01b03166105c661106c565b6001600160a01b031614156105e857506006546001600160a01b03163161066d565b600554600654604080516370a0823160e01b81526001600160a01b0392831660048201529051610100909304909116916370a0823191602480820192602092909190829003018186803b15801561063e57600080fd5b505afa158015610652573d6000803e3d6000fd5b505050506040513d602081101561066857600080fd5b505190505b60006106818261067b6104a5565b86611084565b9050808210156106cf576040805162461bcd60e51b81526020600482015260146024820152734e6f7420656e6f756768204c697175696469747960601b604482015290519081900360640190fd5b6106d985856110a6565b949350505050565b60006106ee8484846111ae565b610764846106fa610f7c565b61075f85604051806060016040528060288152602001611774602891396001600160a01b038a16600090815260016020526040812090610738610f7c565b6001600160a01b03168152602081019190915260400160002054919063ffffffff61131516565b610f80565b5060015b9392505050565b60055460ff1690565b600061049b610785610f7c565b8461075f8560016000610796610f7c565b6001600160a01b03908116825260208083019390935260409182016000908120918c16815292529020549063ffffffff6113ac16565b6000806107d883610bfe565b90508015610a505760055460009061010090046001600160a01b03166107fc61106c565b6001600160a01b0316141561081e57506006546001600160a01b0316316108a3565b600554600654604080516370a0823160e01b81526001600160a01b0392831660048201529051610100909304909116916370a0823191602480820192602092909190829003018186803b15801561087457600080fd5b505afa158015610888573d6000803e3d6000fd5b505050506040513d602081101561089e57600080fd5b505190505b6006546040805163ec034bed60e01b815290516000926001600160a01b03169163ec034bed916004808301926020929190829003018186803b1580156108e857600080fd5b505afa1580156108fc573d6000803e3d6000fd5b505050506040513d602081101561091257600080fd5b505160055460408051631e8f1df960e01b81526101009092046001600160a01b039081166004840152426024840152905192935060009290841691631e8f1df9916044808301926020929190829003018186803b15801561097257600080fd5b505afa158015610986573d6000803e3d6000fd5b505050506040513d602081101561099c57600080fd5b5051600554600654604080516370a0823160e01b81526001600160a01b0392831660048201529051939450600093610a3593869361010090910416916370a08231916024808301926020929190829003018186803b1580156109fd57600080fd5b505afa158015610a11573d6000803e3d6000fd5b505050506040513d6020811015610a2757600080fd5b50519063ffffffff6113ac16565b9050610a4981610a436104a5565b87611084565b9550505050505b50919050565b6006546000906001600160a01b03163314610aa8576040805162461bcd60e51b815260206004820152600d60248201526c139bdd0814195c9b5a5d1d1959609a1b604482015290519081900360640190fd5b6000610ab26104a5565b60055490915060009061010090046001600160a01b0316610ad161106c565b6001600160a01b03161415610af357506006546001600160a01b031631610b78565b600554600654604080516370a0823160e01b81526001600160a01b0392831660048201529051610100909304909116916370a0823191602480820192602092909190829003018186803b158015610b4957600080fd5b505afa158015610b5d573d6000803e3d6000fd5b505050506040513d6020811015610b7357600080fd5b505190505b6000610b9483610b8e848863ffffffff61140616565b87611463565b905060008111610beb576040805162461bcd60e51b815260206004820152601d60248201527f496e73756666696369656e74204c6971756964697479204d696e746564000000604482015290519081900360640190fd5b610bf5868261149d565b95945050505050565b6001600160a01b0381166000908152602081905260409020545b919050565b60048054604080516020601f600260001961010060018816150201909516949094049384018190048102820181019092528281526060939092909183018282801561047d5780601f106104525761010080835404028352916020019161047d565b6006546000906001600160a01b03163314610cd0576040805162461bcd60e51b815260206004820152600d60248201526c139bdd0814195c9b5a5d1d1959609a1b604482015290519081900360640190fd5b60055460009061010090046001600160a01b0316610cec61106c565b6001600160a01b03161415610d0e57506006546001600160a01b031631610d93565b600554600654604080516370a0823160e01b81526001600160a01b0392831660048201529051610100909304909116916370a0823191602480820192602092909190829003018186803b158015610d6457600080fd5b505afa158015610d78573d6000803e3d6000fd5b505050506040513d6020811015610d8e57600080fd5b505190505b6000610da782610da16104a5565b86611599565b905060008111610dfe576040805162461bcd60e51b815260206004820152601d60248201527f496e73756666696369656e74204c6971756964697479204275726e6564000000604482015290519081900360640190fd5b80610e0886610bfe565b1015610e56576040805162461bcd60e51b815260206004820152601860248201527710985b185b98d948115e1959591cc814995c5d595cdd195960421b604482015290519081900360640190fd5b83821015610ea2576040805162461bcd60e51b81526020600482015260146024820152734e6f7420656e6f756768204c697175696469747960601b604482015290519081900360640190fd5b6106d985826110a6565b600061049b610eb9610f7c565b8461075f856040518060600160405280602581526020016118066025913960016000610ee3610f7c565b6001600160a01b03908116825260208083019390935260409182016000908120918d1681529252902054919063ffffffff61131516565b600061049b610f27610f7c565b84846111ae565b6001600160a01b03918216600090815260016020908152604080832093909416825291909152205490565b6006546001600160a01b031681565b60055461010090046001600160a01b031681565b3390565b6001600160a01b038316610fc55760405162461bcd60e51b81526004018080602001828103825260248152602001806117e26024913960400191505060405180910390fd5b6001600160a01b03821661100a5760405162461bcd60e51b815260040180806020018281038252602281526020018061170b6022913960400191505060405180910390fd5b6001600160a01b03808416600081815260016020908152604080832094871680845294825291829020859055815185815291517f8c5be1e5ebec7d5bd14f71427d1e84f3dd0314c0f7b2291e5b200ac8c7c3b9259281900390910190a3505050565b73eeeeeeeeeeeeeeeeeeeeeeeeeeeeeeeeeeeeeeee90565b60006106d98361109a848763ffffffff6115af16565b9063ffffffff61160816565b6001600160a01b0382166110eb5760405162461bcd60e51b815260040180806020018281038252602181526020018061179c6021913960400191505060405180910390fd5b6110f78260008361166f565b61113a816040518060600160405280602281526020016116e9602291396001600160a01b038516600090815260208190526040902054919063ffffffff61131516565b6001600160a01b038316600090815260208190526040902055600254611166908263ffffffff61140616565b6002556040805182815290516000916001600160a01b038516917fddf252ad1be2c89b69c2b068fc378daa952ba7f163c4a11628f55a4df523b3ef9181900360200190a35050565b6001600160a01b0383166111f35760405162461bcd60e51b81526004018080602001828103825260258152602001806117bd6025913960400191505060405180910390fd5b6001600160a01b0382166112385760405162461bcd60e51b81526004018080602001828103825260238152602001806116c66023913960400191505060405180910390fd5b61124383838361166f565b6112868160405180606001604052806026815260200161172d602691396001600160a01b038616600090815260208190526040902054919063ffffffff61131516565b6001600160a01b0380851660009081526020819052604080822093909355908416815220546112bb908263ffffffff6113ac16565b6001600160a01b038084166000818152602081815260409182902094909455805185815290519193928716927fddf252ad1be2c89b69c2b068fc378daa952ba7f163c4a11628f55a4df523b3ef92918290030190a3505050565b600081848411156113a45760405162461bcd60e51b81526004018080602001828103825283818151815260200191508051906020019080838360005b83811015611369578181015183820152602001611351565b50505050905090810190601f1680156113965780820380516001836020036101000a031916815260200191505b509250505060405180910390fd5b505050900390565b600082820183811015610768576040805162461bcd60e51b815260206004820152601b60248201527f536166654d6174683a206164646974696f6e206f766572666c6f770000000000604482015290519081900360640190fd5b60008282111561145d576040805162461bcd60e51b815260206004820152601e60248201527f536166654d6174683a207375627472616374696f6e206f766572666c6f770000604482015290519081900360640190fd5b50900390565b6000836114895761148261147d838063ffffffff6115af16565b611674565b9050610768565b6114828361109a848763ffffffff6115af16565b6001600160a01b0382166114f8576040805162461bcd60e51b815260206004820152601f60248201527f45524332303a206d696e7420746f20746865207a65726f206164647265737300604482015290519081900360640190fd5b6115046000838361166f565b600254611517908263ffffffff6113ac16565b6002556001600160a01b038216600090815260208190526040902054611543908263ffffffff6113ac16565b6001600160a01b0383166000818152602081815260408083209490945583518581529351929391927fddf252ad1be2c89b69c2b068fc378daa952ba7f163c4a11628f55a4df523b3ef9281900390910190a35050565b60006106d98461109a848663ffffffff6115af16565b6000826115be5750600061049f565b828202828482816115cb57fe5b04146107685760405162461bcd60e51b81526004018080602001828103825260218152602001806117536021913960400191505060405180910390fd5b600080821161165e576040805162461bcd60e51b815260206004820152601a60248201527f536166654d6174683a206469766973696f6e206279207a65726f000000000000604482015290519081900360640190fd5b81838161166757fe5b049392505050565b505050565b600060038211156116b7575080600160028204015b818110156116b1578091506002818285816116a057fe5b0401816116a957fe5b049050611689565b50610c18565b8115610c185750600191905056fe45524332303a207472616e7366657220746f20746865207a65726f206164647265737345524332303a206275726e20616d6f756e7420657863656564732062616c616e636545524332303a20617070726f766520746f20746865207a65726f206164647265737345524332303a207472616e7366657220616d6f756e7420657863656564732062616c616e6365536166654d6174683a206d756c7469706c69636174696f6e206f766572666c6f7745524332303a207472616e7366657220616d6f756e74206578636565647320616c6c6f77616e636545524332303a206275726e2066726f6d20746865207a65726f206164647265737345524332303a207472616e736665722066726f6d20746865207a65726f206164647265737345524332303a20617070726f76652066726f6d20746865207a65726f206164647265737345524332303a2064656372656173656420616c6c6f77616e63652062656c6f77207a65726fa2646970667358221220f1c3fec916904283fc37892bf854683004cda0fbdaf8fffc34ec3bb96f731a7064736f6c63430006020033608060405234801561001057600080fd5b50600380546001600160a01b03191633179055650a86cc92e3db600055610cec8061003c6000396000f3fe608060405234801561001057600080fd5b506004361061009e5760003560e01c8063b99152d011610066578063b99152d01461015d578063c2120ce114610183578063e2288fe8146101a9578063e69d849d146101d5578063f2f4eb26146102155761009e565b8063023fc07a146100a35780631e8f1df9146100db57806335aa32d2146101075780637f07835a1461012d57806387b0be4814610135575b600080fd5b6100c9600480360360208110156100b957600080fd5b50356001600160a01b0316610239565b60408051918252519081900360200190f35b6100c9600480360360408110156100f157600080fd5b506001600160a01b03813516906020013561024b565b6100c96004803603602081101561011d57600080fd5b50356001600160a01b031661037a565b6100c961038c565b61015b6004803603602081101561014b57600080fd5b50356001600160a01b0316610392565b005b6100c96004803603602081101561017357600080fd5b50356001600160a01b0316610554565b6100c96004803603602081101561019957600080fd5b50356001600160a01b03166105d2565b61015b600480360360408110156101bf57600080fd5b506001600160a01b038135169060200135610618565b610201600480360360408110156101eb57600080fd5b506001600160a01b0381351690602001356106c4565b604080519115158252519081900360200190f35b61021d610775565b604080516001600160a01b039092168252519081900360200190f35b60016020526000908152604090205481565b600080836001600160a01b0316610260610784565b6001600160a01b031614156102765750476102eb565b604080516370a0823160e01b815230600482015290516001600160a01b038616916370a08231916024808301926020929190829003018186803b1580156102bc57600080fd5b505afa1580156102d0573d6000803e3d6000fd5b505050506040513d60208110156102e657600080fd5b505190505b600061032f6102f9866105d2565b6001600160a01b03871660009081526002602052604090205461032390879063ffffffff61079c16565b9063ffffffff6107f916565b905068056bc75e2d6310000080821115610347578091505b61037068056bc75e2d63100000610364858563ffffffff6107f916565b9063ffffffff61085916565b9695505050505050565b60026020526000908152604090205481565b60005481565b6000816001600160a01b03166103a6610784565b6001600160a01b031614156103bc575047610431565b604080516370a0823160e01b815230600482015290516001600160a01b038416916370a08231916024808301926020929190829003018186803b15801561040257600080fd5b505afa158015610416573d6000803e3d6000fd5b505050506040513d602081101561042c57600080fd5b505190505b801561053457600061046f610445846105d2565b6001600160a01b03851660009081526002602052604090205461032390429063ffffffff61079c16565b6001600160a01b0384166000908152600260205260409020429055905068056bc75e2d63100000808211156104a2578091505b60006104c168056bc75e2d63100000610364868663ffffffff6107f916565b9050801561052c576003546104e9906001600160a01b0387811691168363ffffffff6108c016565b6003546040805183815290516001600160a01b03909216917fb21fb52d5749b80f3182f8c6992236b5e5576681880914484d7f4c9b062e619e9181900360200190a25b505050610550565b6001600160a01b03821660009081526002602052604090204290555b5050565b604080516370a0823160e01b815230600482015290516000916001600160a01b038416916370a0823191602480820192602092909190829003018186803b15801561059e57600080fd5b505afa1580156105b2573d6000803e3d6000fd5b505050506040513d60208110156105c857600080fd5b505190505b919050565b6001600160a01b0381166000908152600160205260408120541561060f57506001600160a01b0381166000908152600160205260409020546105cd565b506000546105cd565b6003546001600160a01b03163314610667576040805162461bcd60e51b815260206004820152600d60248201526c139bdd0814195c9b5a5d1d1959609a1b604482015290519081900360640190fd5b61067082610392565b6001600160a01b038216600081815260016020908152604091829020849055815184815291517fb0c963d413edd127ad62545498289e3f6755302c3584b805aa2390482b9375fd9281900390910190a25050565b6000808211610711576040805162461bcd60e51b8152602060048201526014602482015273416d6f756e742063616e2774206265207a65726f60601b604482015290519081900360640190fd5b61071a83610392565b6107356001600160a01b03841633308563ffffffff61091716565b60408051838152905133917f0e04c8e83a5595ba6381972e5e9fe2926bb0a7439dace880c83ccc34b99c5477919081900360200190a25060015b92915050565b6003546001600160a01b031681565b73eeeeeeeeeeeeeeeeeeeeeeeeeeeeeeeeeeeeeeee90565b6000828211156107f3576040805162461bcd60e51b815260206004820152601e60248201527f536166654d6174683a207375627472616374696f6e206f766572666c6f770000604482015290519081900360640190fd5b50900390565b6000826108085750600061076f565b8282028284828161081557fe5b04146108525760405162461bcd60e51b8152600401808060200182810382526021815260200180610c6c6021913960400191505060405180910390fd5b9392505050565b60008082116108af576040805162461bcd60e51b815260206004820152601a60248201527f536166654d6174683a206469766973696f6e206279207a65726f000000000000604482015290519081900360640190fd5b8183816108b857fe5b049392505050565b604080516001600160a01b038416602482015260448082018490528251808303909101815260649091019091526020810180516001600160e01b031663a9059cbb60e01b179052610912908490610977565b505050565b604080516001600160a01b0380861660248301528416604482015260648082018490528251808303909101815260849091019091526020810180516001600160e01b03166323b872dd60e01b179052610971908590610977565b50505050565b60606109cc826040518060400160405280602081526020017f5361666545524332303a206c6f772d6c6576656c2063616c6c206661696c6564815250856001600160a01b0316610a289092919063ffffffff16565b805190915015610912578080602001905160208110156109eb57600080fd5b50516109125760405162461bcd60e51b815260040180806020018281038252602a815260200180610c8d602a913960400191505060405180910390fd5b6060610a378484600085610a3f565b949350505050565b606082471015610a805760405162461bcd60e51b8152600401808060200182810382526026815260200180610c466026913960400191505060405180910390fd5b610a8985610b9b565b610ada576040805162461bcd60e51b815260206004820152601d60248201527f416464726573733a2063616c6c20746f206e6f6e2d636f6e7472616374000000604482015290519081900360640190fd5b60006060866001600160a01b031685876040518082805190602001908083835b60208310610b195780518252601f199092019160209182019101610afa565b6001836020036101000a03801982511681845116808217855250505050505090500191505060006040518083038185875af1925050503d8060008114610b7b576040519150601f19603f3d011682016040523d82523d6000602084013e610b80565b606091505b5091509150610b90828286610ba1565b979650505050505050565b3b151590565b60608315610bb0575081610852565b825115610bc05782518084602001fd5b8160405162461bcd60e51b81526004018080602001828103825283818151815260200191508051906020019080838360005b83811015610c0a578181015183820152602001610bf2565b50505050905090810190601f168015610c375780820380516001836020036101000a031916815260200191505b509250505060405180910390fdfe416464726573733a20696e73756666696369656e742062616c616e636520666f722063616c6c536166654d6174683a206d756c7469706c69636174696f6e206f766572666c6f775361666545524332303a204552433230206f7065726174696f6e20646964206e6f742073756363656564a2646970667358221220bdfb5cf25cea11394e6f96d88823796a5a4563fdba5935c695a306865e008cc964736f6c634300060200335468657265206973206e6f7420656e6f756768206c697175696469747920617661696c61626c6520746f20626f72726f77556e696c656e6456313a20494e56414c49442050524f544f434f4c204645452052414e474554686520616d6f756e7420616e64207468652076616c75652073656e7420746f206465706f73697420646f206e6f74206d61746368557365722069732073656e64696e672045544820616c6f6e67207769746820746865204552433230207472616e736665722e416464726573733a20696e73756666696369656e742062616c616e636520666f722063616c6c5468652061637475616c2062616c616e6365206f66207468652070726f746f636f6c20697320696e636f6e73697374656e74556e696c656e6456313a20444f4e4154494f4e204144445245535320414c52454144592043524541544544536166654d6174683a206d756c7469706c69636174696f6e206f766572666c6f775468652072657175657374656420616d6f756e7420697320746f6f20736d616c6c20666f72206120666c6173684c6f616e2e556e696c656e6456313a20494e56414c494420544f54414c204645452052414e47455361666545524332303a204552433230206f7065726174696f6e20646964206e6f742073756363656564a26469706673582212200d58fdb2587be4f402e7fa115541365556dc471e1d12ff983f7d58de8d0b356864736f6c63430006020033",
  "source": "pragma solidity 0.6.2;\n// SPDX-License-Identifier: MIT\n\nimport \"openzeppelin-solidity/contracts/math/SafeMath.sol\";\nimport \"openzeppelin-solidity/contracts/token/ERC20/ERC20.sol\";\nimport \"openzeppelin-solidity/contracts/token/ERC20/SafeERC20.sol\";\nimport \"openzeppelin-solidity/contracts/utils/ReentrancyGuard.sol\";\n\nimport \"./IFlashLoanReceiver.sol\";\nimport \"./EthAddressLib.sol\";\nimport \"./UnilendFDonation.sol\";\n\nlibrary Math {\n    function min(uint256 x, uint256 y) internal pure returns (uint256 z) {\n        z = x < y ? x : y;\n    }\n\n    // babylonian method (https://en.wikipedia.org/wiki/Methods_of_computing_square_roots#Babylonian_method)\n    function sqrt(uint256 y) internal pure returns (uint256 z) {\n        if (y > 3) {\n            z = y;\n            uint256 x = y / 2 + 1;\n            while (x < z) {\n                z = x;\n                x = (y / x + x) / 2;\n            }\n        } else if (y != 0) {\n            z = 1;\n        }\n    }\n}\n\ncontract UFlashLoanPool is ERC20 {\n    using SafeMath for uint256;\n\n    address public token;\n    address payable public core;\n\n    constructor(\n        address _token,\n        string memory _name,\n        string memory _symbol\n    ) public ERC20(_name, _symbol) {\n        token = _token;\n\n        core = payable(msg.sender);\n    }\n\n    modifier onlyCore {\n        require(core == msg.sender, \"Not Permitted\");\n        _;\n    }\n\n    function calculateShare(\n        uint256 _totalShares,\n        uint256 _totalAmount,\n        uint256 _amount\n    ) internal pure returns (uint256) {\n        if (_totalShares == 0) {\n            return Math.sqrt(_amount.mul(_amount));\n        } else {\n            return (_amount).mul(_totalShares).div(_totalAmount);\n        }\n    }\n\n    function getShareValue(\n        uint256 _totalAmount,\n        uint256 _totalSupply,\n        uint256 _amount\n    ) internal pure returns (uint256) {\n        return (_amount.mul(_totalAmount)).div(_totalSupply);\n    }\n\n    function getShareByValue(\n        uint256 _totalAmount,\n        uint256 _totalSupply,\n        uint256 _valueAmount\n    ) internal pure returns (uint256) {\n        return (_valueAmount.mul(_totalSupply)).div(_totalAmount);\n    }\n\n    function deposit(address _recipient, uint256 amount)\n        external\n        onlyCore\n        returns (uint256)\n    {\n        uint256 _totalSupply = totalSupply();\n\n        uint256 tokenBalance;\n        if (EthAddressLib.ethAddress() == token) {\n            tokenBalance = address(core).balance;\n        } else {\n            tokenBalance = IERC20(token).balanceOf(core);\n        }\n\n        uint256 ntokens =\n            calculateShare(_totalSupply, tokenBalance.sub(amount), amount);\n\n        require(ntokens > 0, \"Insufficient Liquidity Minted\");\n\n        // MINT uTokens\n        _mint(_recipient, ntokens);\n\n        return ntokens;\n    }\n\n    function redeem(address _recipient, uint256 tok_amount)\n        external\n        onlyCore\n        returns (uint256)\n    {\n        require(tok_amount > 0, \"Insufficient Liquidity Burned\");\n        require(\n            balanceOf(_recipient) >= tok_amount,\n            \"Balance Exeeds Requested\"\n        );\n\n        uint256 tokenBalance;\n        if (EthAddressLib.ethAddress() == token) {\n            tokenBalance = address(core).balance;\n        } else {\n            tokenBalance = IERC20(token).balanceOf(core);\n        }\n\n        uint256 poolAmount =\n            getShareValue(tokenBalance, totalSupply(), tok_amount);\n\n        require(tokenBalance >= poolAmount, \"Not enough Liquidity\");\n\n        // BURN uTokens\n        _burn(_recipient, tok_amount);\n\n        return poolAmount;\n    }\n\n    function redeemUnderlying(address _recipient, uint256 amount)\n        external\n        onlyCore\n        returns (uint256)\n    {\n        uint256 tokenBalance;\n        if (EthAddressLib.ethAddress() == token) {\n            tokenBalance = address(core).balance;\n        } else {\n            tokenBalance = IERC20(token).balanceOf(core);\n        }\n\n        uint256 tok_amount =\n            getShareByValue(tokenBalance, totalSupply(), amount);\n\n        require(tok_amount > 0, \"Insufficient Liquidity Burned\");\n        require(\n            balanceOf(_recipient) >= tok_amount,\n            \"Balance Exeeds Requested\"\n        );\n        require(tokenBalance >= amount, \"Not enough Liquidity\");\n\n        // BURN uTokens\n        _burn(_recipient, tok_amount);\n\n        return tok_amount;\n    }\n\n    function balanceOfUnderlying(address _address)\n        public\n        view\n        returns (uint256 _bal)\n    {\n        uint256 _balance = balanceOf(_address);\n\n        if (_balance > 0) {\n            uint256 tokenBalance;\n            if (EthAddressLib.ethAddress() == token) {\n                tokenBalance = address(core).balance;\n            } else {\n                tokenBalance = IERC20(token).balanceOf(core);\n            }\n\n            address donationAddress =\n                UnilendFlashLoanCore(core).donationAddress();\n            uint256 _balanceDonation =\n                UnilendFDonation(donationAddress).getCurrentRelease(\n                    token,\n                    block.timestamp\n                );\n            uint256 _totalPoolAmount =\n                (IERC20(token).balanceOf(core)).add(_balanceDonation);\n\n            _bal = getShareValue(_totalPoolAmount, totalSupply(), _balance);\n        }\n    }\n}\n\ncontract UnilendFlashLoanCore is Context, ReentrancyGuard {\n    using SafeMath for uint256;\n    using SafeERC20 for ERC20;\n\n    address public admin;\n    address payable public distributorAddress;\n    address public donationAddress;\n\n    mapping(address => address) public Pools;\n    mapping(address => address) public Assets;\n    uint256 public poolLength;\n\n    uint256 private FLASHLOAN_FEE_TOTAL = 9;\n    uint256 private FLASHLOAN_FEE_PROTOCOL = 3000;\n\n    constructor() public {\n        admin = msg.sender;\n    }\n\n    /**\n     * @dev emitted when a flashloan is executed\n     * @param _target the address of the flashLoanReceiver\n     * @param _reserve the address of the reserve\n     * @param _amount the amount requested\n     * @param _totalFee the total fee on the amount\n     * @param _protocolFee the part of the fee for the protocol\n     * @param _timestamp the timestamp of the action\n     **/\n    event FlashLoan(\n        address indexed _target,\n        address indexed _reserve,\n        uint256 _amount,\n        uint256 _totalFee,\n        uint256 _protocolFee,\n        uint256 _timestamp\n    );\n\n    event PoolCreated(address indexed token, address pool, uint256);\n\n    /**\n     * @dev emitted during a redeem action.\n     * @param _reserve the address of the reserve\n     * @param _user the address of the user\n     * @param _amount the amount to be deposited\n     * @param _timestamp the timestamp of the action\n     **/\n    event RedeemUnderlying(\n        address indexed _reserve,\n        address indexed _user,\n        uint256 _amount,\n        uint256 _timestamp\n    );\n\n    /**\n     * @dev emitted on deposit\n     * @param _reserve the address of the reserve\n     * @param _user the address of the user\n     * @param _amount the amount to be deposited\n     * @param _timestamp the timestamp of the action\n     **/\n    event Deposit(\n        address indexed _reserve,\n        address indexed _user,\n        uint256 _amount,\n        uint256 _timestamp\n    );\n\n    /**\n     * @dev only lending pools configurator can use functions affected by this modifier\n     **/\n    modifier onlyAdmin {\n        require(admin == msg.sender, \"The caller must be a admin\");\n        _;\n    }\n\n    /**\n     * @dev functions affected by this modifier can only be invoked if the provided _amount input parameter\n     * is not zero.\n     * @param _amount the amount provided\n     **/\n    modifier onlyAmountGreaterThanZero(uint256 _amount) {\n        require(_amount > 0, \"Amount must be greater than 0\");\n        _;\n    }\n\n    receive() external payable {}\n\n    /**\n     * @dev returns the fee applied to a flashloan and the portion to redirect to the protocol, in basis points.\n     **/\n    function getFlashLoanFeesInBips() public view returns (uint256, uint256) {\n        return (FLASHLOAN_FEE_TOTAL, FLASHLOAN_FEE_PROTOCOL);\n    }\n\n    /**\n     * @dev gets the bulk uToken contract address for the reserves\n     * @param _reserves the array of reserve address\n     * @return the address of the uToken contract\n     **/\n    function getPools(address[] calldata _reserves)\n        external\n        view\n        returns (address[] memory)\n    {\n        address[] memory _addresss = new address[](_reserves.length);\n        address[] memory _reserves_ = _reserves;\n\n        for (uint256 i = 0; i < _reserves_.length; i++) {\n            _addresss[i] = Pools[_reserves_[i]];\n        }\n\n        return _addresss;\n    }\n\n    /**\n     * @dev set new admin for contract.\n     * @param _admin the address of new admin\n     **/\n    function setAdmin(address _admin) external onlyAdmin {\n        require(_admin != address(0), \"UnilendV1: ZERO ADDRESS\");\n        admin = _admin;\n    }\n\n    /**\n     * @dev set new distributor address.\n     * @param _address new address\n     **/\n    function setDistributorAddress(address payable _address)\n        external\n        onlyAdmin\n    {\n        require(_address != address(0), \"UnilendV1: ZERO ADDRESS\");\n        distributorAddress = _address;\n    }\n\n    /**\n     * @dev set new flash loan fees.\n     * @param _newFeeTotal total fee\n     * @param _newFeeProtocol protocol fee\n     **/\n    function setFlashLoanFeesInBips(\n        uint256 _newFeeTotal,\n        uint256 _newFeeProtocol\n    ) external onlyAdmin returns (bool) {\n        require(\n            _newFeeTotal > 0 && _newFeeTotal < 10000,\n            \"UnilendV1: INVALID TOTAL FEE RANGE\"\n        );\n        require(\n            _newFeeProtocol > 0 && _newFeeProtocol < 10000,\n            \"UnilendV1: INVALID PROTOCOL FEE RANGE\"\n        );\n\n        FLASHLOAN_FEE_TOTAL = _newFeeTotal;\n        FLASHLOAN_FEE_PROTOCOL = _newFeeProtocol;\n\n        return true;\n    }\n\n    /**\n     * @dev transfers to the user a specific amount from the reserve.\n     * @param _reserve the address of the reserve where the transfer is happening\n     * @param _user the address of the user receiving the transfer\n     * @param _amount the amount being transferred\n     **/\n    function transferToUser(\n        address _reserve,\n        address payable _user,\n        uint256 _amount\n    ) internal {\n        require(_user != address(0), \"UnilendV1: USER ZERO ADDRESS\");\n\n        if (_reserve != EthAddressLib.ethAddress()) {\n            ERC20(_reserve).safeTransfer(_user, _amount);\n        } else {\n            //solium-disable-next-line\n            // (bool result, ) = _user.call{value: _amount, gas: 50000}(\"\");\n            (bool result, ) = _user.call.value(_amount).gas(50000)(\"\");\n            require(result, \"Transfer of ETH failed\");\n        }\n    }\n\n    /**\n     * @dev transfers to the protocol fees of a flashloan to the fees collection address\n     * @param _token the address of the token being transferred\n     * @param _amount the amount being transferred\n     **/\n    function transferFlashLoanProtocolFeeInternal(\n        address _token,\n        uint256 _amount\n    ) internal {\n        if (_token != EthAddressLib.ethAddress()) {\n            ERC20(_token).safeTransfer(distributorAddress, _amount);\n        } else {\n            (bool result, ) =\n                distributorAddress.call.value(_amount).gas(50000)(\"\");\n            require(result, \"Transfer of ETH failed\");\n        }\n    }\n\n    /**\n     * @dev allows smartcontracts to access the liquidity of the pool within one transaction,\n     * as long as the amount taken plus a fee is returned. NOTE There are security concerns for developers of flashloan receiver contracts\n     * that must be kept into consideration. For further details please visit https://developers.aave.com\n     * @param _receiver The address of the contract receiving the funds. The receiver should implement the IFlashLoanReceiver interface.\n     * @param _reserve the address of the principal reserve\n     * @param _amount the amount requested for this flashloan\n     **/\n    function flashLoan(\n        address _receiver,\n        address _reserve,\n        uint256 _amount,\n        bytes calldata _params\n    ) external nonReentrant onlyAmountGreaterThanZero(_amount) {\n        //check that the reserve has enough available liquidity\n        uint256 availableLiquidityBefore =\n            _reserve == EthAddressLib.ethAddress()\n                ? address(this).balance\n                : IERC20(_reserve).balanceOf(address(this));\n\n        require(\n            availableLiquidityBefore >= _amount,\n            \"There is not enough liquidity available to borrow\"\n        );\n\n        (uint256 totalFeeBips, uint256 protocolFeeBips) =\n            getFlashLoanFeesInBips();\n        //calculate amount fee\n        uint256 amountFee = _amount.mul(totalFeeBips).div(10000);\n\n        //protocol fee is the part of the amountFee reserved for the protocol - the rest goes to depositors\n        uint256 protocolFee = amountFee.mul(protocolFeeBips).div(10000);\n        require(\n            amountFee > 0 && protocolFee > 0,\n            \"The requested amount is too small for a flashLoan.\"\n        );\n\n        //get the FlashLoanReceiver instance\n        IFlashLoanReceiver receiver = IFlashLoanReceiver(_receiver);\n\n        //transfer funds to the receiver\n        transferToUser(_reserve, payable(_receiver), _amount);\n\n        //execute action of the receiver\n        receiver.executeOperation(_reserve, _amount, amountFee, _params);\n\n        //check that the actual balance of the core contract includes the returned amount\n        uint256 availableLiquidityAfter =\n            _reserve == EthAddressLib.ethAddress()\n                ? address(this).balance\n                : IERC20(_reserve).balanceOf(address(this));\n\n        require(\n            availableLiquidityAfter == availableLiquidityBefore.add(amountFee),\n            \"The actual balance of the protocol is inconsistent\"\n        );\n\n        transferFlashLoanProtocolFeeInternal(_reserve, protocolFee);\n\n        //solium-disable-next-line\n        emit FlashLoan(\n            _receiver,\n            _reserve,\n            _amount,\n            amountFee,\n            protocolFee,\n            block.timestamp\n        );\n    }\n\n    /**\n     * @dev deposits The underlying asset into the reserve. A corresponding amount of the overlying asset (uTokens) is minted.\n     * @param _reserve the address of the reserve\n     * @param _amount the amount to be deposited\n     **/\n    function deposit(address _reserve, uint256 _amount)\n        external\n        payable\n        nonReentrant\n        onlyAmountGreaterThanZero(_amount)\n        returns (uint256 mintedTokens)\n    {\n        require(Pools[_reserve] != address(0), \"UnilendV1: POOL NOT FOUND\");\n\n        UnilendFDonation(donationAddress).releaseTokens(_reserve);\n\n        address _user = msg.sender;\n\n        if (_reserve != EthAddressLib.ethAddress()) {\n            require(\n                msg.value == 0,\n                \"User is sending ETH along with the ERC20 transfer.\"\n            );\n            ERC20(_reserve).safeTransferFrom(_user, address(this), _amount);\n        } else {\n            require(\n                msg.value >= _amount,\n                \"The amount and the value sent to deposit do not match\"\n            );\n\n            if (msg.value > _amount) {\n                //send back excess ETH\n                uint256 excessAmount = msg.value.sub(_amount);\n\n                // (bool result, ) = _user.call{value: excessAmount, gas: 50000}(\"\");\n                (bool result, ) = _user.call.value(excessAmount).gas(50000)(\"\");\n                require(result, \"Transfer of ETH failed\");\n            }\n        }\n\n        mintedTokens = UFlashLoanPool(Pools[_reserve]).deposit(\n            msg.sender,\n            _amount\n        );\n\n        emit Deposit(_reserve, msg.sender, _amount, block.timestamp);\n    }\n\n    /**\n     * @dev Redeems the uTokens for underlying assets.\n     * @param _reserve the address of the reserve\n     * @param _amount the amount uTokens to be redeemed\n     **/\n    function redeem(address _reserve, uint256 _amount)\n        external\n        returns (uint256 redeemTokens)\n    {\n        require(Pools[_reserve] != address(0), \"UnilendV1: POOL NOT FOUND\");\n\n        UnilendFDonation(donationAddress).releaseTokens(_reserve);\n\n        redeemTokens = UFlashLoanPool(Pools[_reserve]).redeem(\n            msg.sender,\n            _amount\n        );\n\n        //transfer funds to the user\n        transferToUser(_reserve, payable(msg.sender), redeemTokens);\n\n        emit RedeemUnderlying(\n            _reserve,\n            msg.sender,\n            redeemTokens,\n            block.timestamp\n        );\n    }\n\n    /**\n     * @dev Redeems the underlying amount of assets.\n     * @param _reserve the address of the reserve\n     * @param _amount the underlying amount to be redeemed\n     **/\n    function redeemUnderlying(address _reserve, uint256 _amount)\n        external\n        returns (uint256 token_amount)\n    {\n        require(Pools[_reserve] != address(0), \"UnilendV1: POOL NOT FOUND\");\n\n        UnilendFDonation(donationAddress).releaseTokens(_reserve);\n\n        token_amount = UFlashLoanPool(Pools[_reserve]).redeemUnderlying(\n            msg.sender,\n            _amount\n        );\n\n        // transfer ERC20 token for amount\n        // IERC20(_reserve).transfer(msg.sender, _amount);\n\n        //transfer funds to the user\n        transferToUser(_reserve, payable(msg.sender), _amount);\n\n        emit RedeemUnderlying(_reserve, msg.sender, _amount, block.timestamp);\n    }\n\n    /**\n     * @dev Creates pool for asset.\n     * This function is executed by the overlying aToken contract in response to a redeem action.\n     * @param _reserve the address of the reserve\n     **/\n    function createPool(address _reserve) public returns (address) {\n        require(\n            Pools[_reserve] == address(0),\n            \"UnilendV1: POOL ALREADY CREATED\"\n        );\n\n        ERC20 asset = ERC20(_reserve);\n\n        string memory aTokenName;\n        string memory aTokenSymbol;\n\n        if (_reserve == EthAddressLib.ethAddress()) {\n            aTokenName = string(abi.encodePacked(\"UnilendV1 - ETH\"));\n            aTokenSymbol = string(abi.encodePacked(\"uETH\"));\n        } else {\n            aTokenName = string(abi.encodePacked(\"UnilendV1 - \", asset.name()));\n            aTokenSymbol = string(abi.encodePacked(\"u\", asset.symbol()));\n        }\n\n        UFlashLoanPool _poolMeta =\n            new UFlashLoanPool(_reserve, aTokenName, aTokenSymbol);\n\n        address _poolAddress = address(_poolMeta);\n\n        Pools[_reserve] = _poolAddress;\n        Assets[_poolAddress] = _reserve;\n\n        poolLength++;\n\n        emit PoolCreated(_reserve, _poolAddress, poolLength);\n\n        return _poolAddress;\n    }\n\n    /**\n     * @dev Creates donation contract (one-time).\n     **/\n    function createDonationContract() external returns (address) {\n        require(\n            donationAddress == address(0),\n            \"UnilendV1: DONATION ADDRESS ALREADY CREATED\"\n        );\n\n        UnilendFDonation _donationMeta = new UnilendFDonation();\n        donationAddress = address(_donationMeta);\n\n        return donationAddress;\n    }\n}\n",
  "sourcePath": "/home/aequalis/repo/smartContracts/flashloan-contract/contracts/UnilendFlashLoanCore.sol",
  "compiler": {
    "name": "solc",
    "version": "0.6.2+commit.bacdbe57.Emscripten.clang"
  },
  "schemaVersion": "3.3.4",
  "updatedAt": "2021-03-25T10:43:51.160Z",
  "networkType": "ethereum",
  "devdoc": {
    "methods": {
      "createDonationContract()": {
        "details": "Creates donation contract (one-time).*"
      },
      "createPool(address)": {
        "details": "Creates pool for asset. This function is executed by the overlying aToken contract in response to a redeem action.",
        "params": {
          "_reserve": "the address of the reserve*"
        }
      },
      "deposit(address,uint256)": {
        "details": "deposits The underlying asset into the reserve. A corresponding amount of the overlying asset (uTokens) is minted.",
        "params": {
          "_amount": "the amount to be deposited*",
          "_reserve": "the address of the reserve"
        }
      },
      "flashLoan(address,address,uint256,bytes)": {
        "details": "allows smartcontracts to access the liquidity of the pool within one transaction, as long as the amount taken plus a fee is returned. NOTE There are security concerns for developers of flashloan receiver contracts that must be kept into consideration. For further details please visit https://developers.aave.com",
        "params": {
          "_amount": "the amount requested for this flashloan*",
          "_receiver": "The address of the contract receiving the funds. The receiver should implement the IFlashLoanReceiver interface.",
          "_reserve": "the address of the principal reserve"
        }
      },
      "getFlashLoanFeesInBips()": {
        "details": "returns the fee applied to a flashloan and the portion to redirect to the protocol, in basis points.*"
      },
      "getPools(address[])": {
        "details": "gets the bulk uToken contract address for the reserves",
        "params": {
          "_reserves": "the array of reserve address"
        },
        "returns": {
          "_0": "the address of the uToken contract*"
        }
      },
      "redeem(address,uint256)": {
        "details": "Redeems the uTokens for underlying assets.",
        "params": {
          "_amount": "the amount uTokens to be redeemed*",
          "_reserve": "the address of the reserve"
        }
      },
      "redeemUnderlying(address,uint256)": {
        "details": "Redeems the underlying amount of assets.",
        "params": {
          "_amount": "the underlying amount to be redeemed*",
          "_reserve": "the address of the reserve"
        }
      },
      "setAdmin(address)": {
        "details": "set new admin for contract.",
        "params": {
          "_admin": "the address of new admin*"
        }
      },
      "setDistributorAddress(address)": {
        "details": "set new distributor address.",
        "params": {
          "_address": "new address*"
        }
      },
      "setFlashLoanFeesInBips(uint256,uint256)": {
        "details": "set new flash loan fees.",
        "params": {
          "_newFeeProtocol": "protocol fee*",
          "_newFeeTotal": "total fee"
        }
      }
    }
  },
  "userdoc": {
    "methods": {}
  }
}