{
  "contractName": "UnilendFDonation",
  "abi": [
    {
      "inputs": [],
      "stateMutability": "nonpayable",
      "type": "constructor"
    },
    {
      "anonymous": false,
      "inputs": [
        {
          "indexed": true,
          "internalType": "address",
          "name": "donator",
          "type": "address"
        },
        {
          "indexed": false,
          "internalType": "uint256",
          "name": "amount",
          "type": "uint256"
        }
      ],
      "name": "NewDonation",
      "type": "event"
    },
    {
      "anonymous": false,
      "inputs": [
        {
          "indexed": true,
          "internalType": "address",
          "name": "token",
          "type": "address"
        },
        {
          "indexed": false,
          "internalType": "uint256",
          "name": "rate",
          "type": "uint256"
        }
      ],
      "name": "ReleaseRate",
      "type": "event"
    },
    {
      "anonymous": false,
      "inputs": [
        {
          "indexed": true,
          "internalType": "address",
          "name": "to",
          "type": "address"
        },
        {
          "indexed": false,
          "internalType": "uint256",
          "name": "amount",
          "type": "uint256"
        }
      ],
      "name": "Released",
      "type": "event"
    },
    {
      "inputs": [],
      "name": "core",
      "outputs": [
        {
          "internalType": "address",
          "name": "",
          "type": "address"
        }
      ],
      "stateMutability": "view",
      "type": "function"
    },
    {
      "inputs": [],
      "name": "defaultReleaseRate",
      "outputs": [
        {
          "internalType": "uint256",
          "name": "",
          "type": "uint256"
        }
      ],
      "stateMutability": "view",
      "type": "function"
    },
    {
      "inputs": [
        {
          "internalType": "address",
          "name": "",
          "type": "address"
        }
      ],
      "name": "lastReleased",
      "outputs": [
        {
          "internalType": "uint256",
          "name": "",
          "type": "uint256"
        }
      ],
      "stateMutability": "view",
      "type": "function"
    },
    {
      "inputs": [
        {
          "internalType": "address",
          "name": "",
          "type": "address"
        }
      ],
      "name": "releaseRate",
      "outputs": [
        {
          "internalType": "uint256",
          "name": "",
          "type": "uint256"
        }
      ],
      "stateMutability": "view",
      "type": "function"
    },
    {
      "inputs": [
        {
          "internalType": "address",
          "name": "_token",
          "type": "address"
        }
      ],
      "name": "balanceOfToken",
      "outputs": [
        {
          "internalType": "uint256",
          "name": "",
          "type": "uint256"
        }
      ],
      "stateMutability": "view",
      "type": "function"
    },
    {
      "inputs": [
        {
          "internalType": "address",
          "name": "_token",
          "type": "address"
        }
      ],
      "name": "getReleaseRate",
      "outputs": [
        {
          "internalType": "uint256",
          "name": "",
          "type": "uint256"
        }
      ],
      "stateMutability": "view",
      "type": "function"
    },
    {
      "inputs": [
        {
          "internalType": "address",
          "name": "_token",
          "type": "address"
        },
        {
          "internalType": "uint256",
          "name": "timestamp",
          "type": "uint256"
        }
      ],
      "name": "getCurrentRelease",
      "outputs": [
        {
          "internalType": "uint256",
          "name": "availRelease",
          "type": "uint256"
        }
      ],
      "stateMutability": "view",
      "type": "function"
    },
    {
      "inputs": [
        {
          "internalType": "address",
          "name": "_token",
          "type": "address"
        },
        {
          "internalType": "uint256",
          "name": "amount",
          "type": "uint256"
        }
      ],
      "name": "donate",
      "outputs": [
        {
          "internalType": "bool",
          "name": "",
          "type": "bool"
        }
      ],
      "stateMutability": "nonpayable",
      "type": "function"
    },
    {
      "inputs": [
        {
          "internalType": "address",
          "name": "_token",
          "type": "address"
        },
        {
          "internalType": "uint256",
          "name": "_newRate",
          "type": "uint256"
        }
      ],
      "name": "setReleaseRate",
      "outputs": [],
      "stateMutability": "nonpayable",
      "type": "function"
    },
    {
      "inputs": [
        {
          "internalType": "address",
          "name": "_token",
          "type": "address"
        }
      ],
      "name": "releaseTokens",
      "outputs": [],
      "stateMutability": "nonpayable",
      "type": "function"
    }
  ],
  "bytecode": "0x608060405234801561001057600080fd5b50600380546001600160a01b03191633179055650a86cc92e3db600055610cec8061003c6000396000f3fe608060405234801561001057600080fd5b506004361061009e5760003560e01c8063b99152d011610066578063b99152d01461015d578063c2120ce114610183578063e2288fe8146101a9578063e69d849d146101d5578063f2f4eb26146102155761009e565b8063023fc07a146100a35780631e8f1df9146100db57806335aa32d2146101075780637f07835a1461012d57806387b0be4814610135575b600080fd5b6100c9600480360360208110156100b957600080fd5b50356001600160a01b0316610239565b60408051918252519081900360200190f35b6100c9600480360360408110156100f157600080fd5b506001600160a01b03813516906020013561024b565b6100c96004803603602081101561011d57600080fd5b50356001600160a01b031661037a565b6100c961038c565b61015b6004803603602081101561014b57600080fd5b50356001600160a01b0316610392565b005b6100c96004803603602081101561017357600080fd5b50356001600160a01b0316610554565b6100c96004803603602081101561019957600080fd5b50356001600160a01b03166105d2565b61015b600480360360408110156101bf57600080fd5b506001600160a01b038135169060200135610618565b610201600480360360408110156101eb57600080fd5b506001600160a01b0381351690602001356106c4565b604080519115158252519081900360200190f35b61021d610775565b604080516001600160a01b039092168252519081900360200190f35b60016020526000908152604090205481565b600080836001600160a01b0316610260610784565b6001600160a01b031614156102765750476102eb565b604080516370a0823160e01b815230600482015290516001600160a01b038616916370a08231916024808301926020929190829003018186803b1580156102bc57600080fd5b505afa1580156102d0573d6000803e3d6000fd5b505050506040513d60208110156102e657600080fd5b505190505b600061032f6102f9866105d2565b6001600160a01b03871660009081526002602052604090205461032390879063ffffffff61079c16565b9063ffffffff6107f916565b905068056bc75e2d6310000080821115610347578091505b61037068056bc75e2d63100000610364858563ffffffff6107f916565b9063ffffffff61085916565b9695505050505050565b60026020526000908152604090205481565b60005481565b6000816001600160a01b03166103a6610784565b6001600160a01b031614156103bc575047610431565b604080516370a0823160e01b815230600482015290516001600160a01b038416916370a08231916024808301926020929190829003018186803b15801561040257600080fd5b505afa158015610416573d6000803e3d6000fd5b505050506040513d602081101561042c57600080fd5b505190505b801561053457600061046f610445846105d2565b6001600160a01b03851660009081526002602052604090205461032390429063ffffffff61079c16565b6001600160a01b0384166000908152600260205260409020429055905068056bc75e2d63100000808211156104a2578091505b60006104c168056bc75e2d63100000610364868663ffffffff6107f916565b9050801561052c576003546104e9906001600160a01b0387811691168363ffffffff6108c016565b6003546040805183815290516001600160a01b03909216917fb21fb52d5749b80f3182f8c6992236b5e5576681880914484d7f4c9b062e619e9181900360200190a25b505050610550565b6001600160a01b03821660009081526002602052604090204290555b5050565b604080516370a0823160e01b815230600482015290516000916001600160a01b038416916370a0823191602480820192602092909190829003018186803b15801561059e57600080fd5b505afa1580156105b2573d6000803e3d6000fd5b505050506040513d60208110156105c857600080fd5b505190505b919050565b6001600160a01b0381166000908152600160205260408120541561060f57506001600160a01b0381166000908152600160205260409020546105cd565b506000546105cd565b6003546001600160a01b03163314610667576040805162461bcd60e51b815260206004820152600d60248201526c139bdd0814195c9b5a5d1d1959609a1b604482015290519081900360640190fd5b61067082610392565b6001600160a01b038216600081815260016020908152604091829020849055815184815291517fb0c963d413edd127ad62545498289e3f6755302c3584b805aa2390482b9375fd9281900390910190a25050565b6000808211610711576040805162461bcd60e51b8152602060048201526014602482015273416d6f756e742063616e2774206265207a65726f60601b604482015290519081900360640190fd5b61071a83610392565b6107356001600160a01b03841633308563ffffffff61091716565b60408051838152905133917f0e04c8e83a5595ba6381972e5e9fe2926bb0a7439dace880c83ccc34b99c5477919081900360200190a25060015b92915050565b6003546001600160a01b031681565b73eeeeeeeeeeeeeeeeeeeeeeeeeeeeeeeeeeeeeeee90565b6000828211156107f3576040805162461bcd60e51b815260206004820152601e60248201527f536166654d6174683a207375627472616374696f6e206f766572666c6f770000604482015290519081900360640190fd5b50900390565b6000826108085750600061076f565b8282028284828161081557fe5b04146108525760405162461bcd60e51b8152600401808060200182810382526021815260200180610c6c6021913960400191505060405180910390fd5b9392505050565b60008082116108af576040805162461bcd60e51b815260206004820152601a60248201527f536166654d6174683a206469766973696f6e206279207a65726f000000000000604482015290519081900360640190fd5b8183816108b857fe5b049392505050565b604080516001600160a01b038416602482015260448082018490528251808303909101815260649091019091526020810180516001600160e01b031663a9059cbb60e01b179052610912908490610977565b505050565b604080516001600160a01b0380861660248301528416604482015260648082018490528251808303909101815260849091019091526020810180516001600160e01b03166323b872dd60e01b179052610971908590610977565b50505050565b60606109cc826040518060400160405280602081526020017f5361666545524332303a206c6f772d6c6576656c2063616c6c206661696c6564815250856001600160a01b0316610a289092919063ffffffff16565b805190915015610912578080602001905160208110156109eb57600080fd5b50516109125760405162461bcd60e51b815260040180806020018281038252602a815260200180610c8d602a913960400191505060405180910390fd5b6060610a378484600085610a3f565b949350505050565b606082471015610a805760405162461bcd60e51b8152600401808060200182810382526026815260200180610c466026913960400191505060405180910390fd5b610a8985610b9b565b610ada576040805162461bcd60e51b815260206004820152601d60248201527f416464726573733a2063616c6c20746f206e6f6e2d636f6e7472616374000000604482015290519081900360640190fd5b60006060866001600160a01b031685876040518082805190602001908083835b60208310610b195780518252601f199092019160209182019101610afa565b6001836020036101000a03801982511681845116808217855250505050505090500191505060006040518083038185875af1925050503d8060008114610b7b576040519150601f19603f3d011682016040523d82523d6000602084013e610b80565b606091505b5091509150610b90828286610ba1565b979650505050505050565b3b151590565b60608315610bb0575081610852565b825115610bc05782518084602001fd5b8160405162461bcd60e51b81526004018080602001828103825283818151815260200191508051906020019080838360005b83811015610c0a578181015183820152602001610bf2565b50505050905090810190601f168015610c375780820380516001836020036101000a031916815260200191505b509250505060405180910390fdfe416464726573733a20696e73756666696369656e742062616c616e636520666f722063616c6c536166654d6174683a206d756c7469706c69636174696f6e206f766572666c6f775361666545524332303a204552433230206f7065726174696f6e20646964206e6f742073756363656564a2646970667358221220bdfb5cf25cea11394e6f96d88823796a5a4563fdba5935c695a306865e008cc964736f6c63430006020033",
  "source": "pragma solidity 0.6.2;\n\nimport \"openzeppelin-solidity/contracts/math/SafeMath.sol\";\nimport \"openzeppelin-solidity/contracts/token/ERC20/IERC20.sol\";\nimport \"openzeppelin-solidity/contracts/token/ERC20/SafeERC20.sol\";\n\nimport \"./EthAddressLib.sol\";\n\n\ncontract UnilendFDonation {\n    using SafeMath for uint256;\n    using SafeERC20 for IERC20;\n    \n    uint public defaultReleaseRate;\n    mapping(address => uint) public releaseRate;\n    mapping(address => uint) public lastReleased;\n    address public core;\n    \n    constructor() public {\n        core = msg.sender;\n        defaultReleaseRate = 11574074074075; // ~1% / day\n    }\n    \n    \n    modifier onlyCore {\n        require(\n            core == msg.sender,\n            \"Not Permitted\"\n        );\n        _;\n    }\n    \n    \n    event NewDonation(address indexed donator, uint amount);\n    event Released(address indexed to, uint amount);\n    event ReleaseRate(address indexed token, uint rate);\n    \n    \n    \n    function balanceOfToken(address _token) external view returns(uint) {\n        return IERC20(_token).balanceOf(address(this));\n    }\n    \n    function getReleaseRate(address _token) public view returns (uint) {\n        if(releaseRate[_token] > 0){\n            return releaseRate[_token];\n        } \n        else {\n            return defaultReleaseRate;\n        }\n    }\n    \n    function getCurrentRelease(address _token, uint timestamp) public view returns (uint availRelease){\n        // uint tokenBalance = IERC20(_token).balanceOf( address(this) );\n        uint tokenBalance;\n        if(EthAddressLib.ethAddress() == _token){\n            tokenBalance = address(this).balance;\n        } \n        else {\n            tokenBalance = IERC20(_token).balanceOf( address(this) );\n        }\n        \n        uint remainingRate = ( timestamp.sub( lastReleased[_token] ) ).mul( getReleaseRate(_token) );\n        uint maxRate = 100 * 10**18;\n        \n        if(remainingRate > maxRate){ remainingRate = maxRate; }\n        availRelease = ( tokenBalance.mul( remainingRate )).div(10**20);\n    }\n    \n    \n    function donate(address _token, uint amount) external returns(bool) {\n        require(amount > 0, \"Amount can't be zero\");\n        releaseTokens(_token);\n        \n        IERC20(_token).safeTransferFrom(msg.sender, address(this), amount);\n        \n        emit NewDonation(msg.sender, amount);\n        \n        return true;\n    }\n    \n    function setReleaseRate(address _token, uint _newRate) external onlyCore {\n        releaseTokens(_token);\n        \n        releaseRate[_token] = _newRate;\n        \n        emit ReleaseRate(_token, _newRate);\n    }\n    \n    function releaseTokens(address _token) public {\n        uint tokenBalance;\n        if(EthAddressLib.ethAddress() == _token){\n            tokenBalance = address(this).balance;\n        } \n        else {\n            tokenBalance = IERC20(_token).balanceOf( address(this) );\n        }\n        \n        if(tokenBalance > 0){\n            uint remainingRate = ( block.timestamp.sub( lastReleased[_token] ) ).mul( getReleaseRate(_token) );\n            uint maxRate = 100 * 10**18;\n            \n            lastReleased[_token] = block.timestamp;\n            \n            if(remainingRate > maxRate){ remainingRate = maxRate; }\n            uint totalReleased = ( tokenBalance.mul( remainingRate )).div(10**20);\n            \n            if(totalReleased > 0){\n                IERC20(_token).safeTransfer(core, totalReleased);\n                \n                emit Released(core, totalReleased);\n            }\n        } \n        else {\n            lastReleased[_token] = block.timestamp;\n        }\n    }\n}\n",
  "sourcePath": "/home/aequalis/repo/smartContracts/flashloan-contract/contracts/UnilendFDonation.sol",
  "compiler": {
    "name": "solc",
    "version": "0.6.2+commit.bacdbe57.Emscripten.clang"
  },
  "schemaVersion": "3.3.4",
  "updatedAt": "2021-03-25T10:15:40.626Z",
  "devdoc": {
    "methods": {}
  },
  "userdoc": {
    "methods": {}
  }
}